:020000040800F2
:1000000000000320397D0008393700083F37000819
:10001000453700084B370008513700080000000042
:10002000000000000000000000000000573700083A
:1000300065370008000000007337000881370008AA
:10004000897D0008897D0008897D0008897D000878
:10005000897D0008897D0008897D0008897D000868
:10006000897D0008897D0008897D00088D3700089A
:10007000A1370008897D0008897D0008897D000876
:10008000897D0008897D0008897D0008897D000838
:10009000897D0008897D0008897D0008897D000828
:1000A000897D0008897D0008897D0008897D000818
:1000B000897D0008897D0008897D0008897D000808
:1000C000897D0008897D0008897D0008897D0008F8
:1000D000897D0008897D0008897D0008897D0008E8
:1000E000897D0008897D0008897D0008897D0008D8
:1000F000897D0008897D0008897D000800000000D6
:10010000897D0008897D0008897D0008897D0008B7
:10011000B5370008897D0008897D0008897D0008C1
:10012000897D0008897D0008897D0008897D000897
:10013000897D0008897D0008897D0008897D000887
:10014000897D0008897D0008897D0008897D000877
:10015000897D0008897D0008897D0008897D000867
:10016000897D0008897D0008897D0008897D000857
:10017000897D0008897D0008000000000000000063
:10018000897D0008897D0008897D0008897D000837
:10019000897D0008897D0008000000000000000043
:1001A0000000000000000000897D0008897D000833
:1001B000897D0008897D0008897D00080000000015
:1001C00010F8012B11F8013B012A28BF9A42F7D001
:1001D000D01A7047034613F8012B002AFBD1181AD6
:1001E000013870470000000000000000000000001F
:1001F00001F0FF01102A2BDB10F0070F08D010F8D8
:10020000013B013A8B422DD010F0070F42B3F6D1DB
:10021000F0B441EA012141EA014122F007047FF0F4
:1002200000070023F0E80256083C85EA010586EA4B
:10023000010685FA47F5A3FA87F586FA47F6A5FA87
:1002400087F68EB9EED1F0BC01F0FF0102F0070293
:1002500032B110F8013B013A83EA010313B1F8D13E
:100260000020704701387047002D06BF354603381F
:10027000073815F0010F07D1013015F4807F02BF58
:10028000013015F4C03F0130F0BC0138704700BFA9
:1002900053B94AB9002908BF00281CBF4FF0FF31ED
:1002A0004FF0FF3000F0E2B8ADF1080C6DE904CE7C
:1002B00009F052FCDDF804E0DDE9022304B07047E8
:1002C00000F1340191E838009C46A6464CF8045DE4
:1002D00090E8FF0FE54600BD90EC210B704700BF92
:1002E00080EC210B704700BF90EC200B704700BFE3
:1002F00080EC200B704700BFD0EC200B704700BF94
:10030000C0EC200B704700BFF0EC0201F0EC0211D2
:10031000F0EC0221F0EC0231F0EC0241F0EC025181
:10032000F0EC0261F0EC0271F0EC0281F0EC029171
:10033000F0EC02A1F0EC02B1F0EC02C1F0EC02D161
:10034000F0EC02E1F0EC02F1704700BFE0EC0201DA
:10035000E0EC0211E0EC0221E0EC0231E0EC0241C1
:10036000E0EC0251E0EC0261E0EC0271E0EC0281B1
:10037000E0EC0291E0EC02A1E0EC02B1E0EC02C1A1
:10038000E0EC02D1E0EC02E1E0EC02F1704700BFEA
:10039000B0FC0181B0FC0191B0FC01A1B0FC01B145
:1003A000704700BFA0FC0181A0FC0191A0FC01A14D
:1003B000A0FC01B1704700BFEC4600B52DE900502C
:1003C0002DE9FF1F4FF000032DE90C0001A909F0F2
:1003D0007DFEDDF840E012B0704700BFEC4600B58E
:1003E0002DE900502DE9FF1F4FF000032DE90C000F
:1003F00001A909F0A7FEDDF840E012B0704700BF88
:10040000EC4600B52DE900502DE9FF1F4FF0000329
:100410002DE90C0001A909F0B7FEDDF840E012B0AB
:10042000704700BFEC4600B52DE900502DE9FF1FD5
:100430004FF000032DE90C0001AB09F07BFEDDF865
:1004400040E012B0704700BFEC4600B52DE9005007
:100450002DE9FF1F4FF000032DE90C0001AA09F060
:10046000E9FEDDF840E012B0704700BF704700BF02
:1004700010B5054C237833B9044B13B10448AFF3DE
:1004800000800123237010BD7800002000000000D0
:1004900058AB000808B5034B1BB103490348AFF341
:1004A000008008BD000000007C00002058AB000860
:1004B00080B483B000AF78607B681B6818460C3747
:1004C000BD465DF8047B704780B483B000AF7860B0
:1004D0007B681A687B685B68134418460C37BD4616
:1004E0005DF8047B7047000080B483B000AF786093
:1004F000044A7B681A607B6818460C37BD465DF875
:10050000047B704710AD000880B582B000AF786002
:100510007868FFF7E9FF1021786807F0A9FC7B688D
:1005200018460837BD4680BD80B500AF024800F0D0
:1005300099F80123184680BD9400002080B582B050
:1005400000AF7860034800F034F9012318460837FB
:10055000BD4680BD9400002080B584B002AF7860B5
:1005600039607B68012B0CD13B684FF6FF729342D8
:1005700007D10B2300930C2334220449044800F0D4
:1005800049F800BF0837BD4680BD00BFB80B00204A
:100590009400002080B500AF4FF6FF710120FFF7F7
:1005A000DBFF80BD80B582B000AF786039607B68CA
:1005B0003A681A603868FFF70DFE02467B685A6099
:1005C0007B6818460837BD4680BD000080B584B002
:1005D00000AFF860B9607A600349F868FFF7E2FF9E
:1005E000F8681037BD4680BD70AB000880B483B09A
:1005F00000AF7860064A7B681A607B684FF4164249
:100600005A607B6818460C37BD465DF8047B70471E
:1006100050AD000880B586B002AFF860B9601146F1
:100620001A460B46FB711346BB71FB681846FFF771
:10063000DDFF0B4AFB681A60FB6803F1080097F9BD
:10064000061097F9072097F9183000930B46B96800
:1006500002F072FBFB6818461037BD4680BD00BF34
:100660003CAD000880B582B000AF78607B6803F5D0
:100670000A73184602F00EFD00BF0837BD4680BD64
:1006800080B584B000AFF860B9607A60FB68103361
:100690007A68B968184600F05BFD00BF1037BD46A8
:1006A00080BD80B582B000AF78603960386803F0F3
:1006B00069F900BF0837BD4680BD80B584B000AF82
:1006C000F860B9601346FB71FB79012B03D0FB790D
:1006D000032B0FD011E0FB685B68BA689A420BD01D
:1006E000FB680833B968184602F0E9FCFB68BA6891
:1006F0005A6001E000BF00E000BF00BF1037BD46F8
:1007000080BD80B483B000AF78600B46FB70FB788F
:10071000242B0CBF01230023DBB218460C37BD4647
:100720005DF8047B704780B483B000AF78600B46FF
:10073000FB70FB780D2B0CBF01230023DBB21846A6
:100740000C37BD465DF8047B704780B483B000AFC2
:1007500078600B46FB70FB78B52B0CBF01230023A0
:10076000DBB218460C37BD465DF8047B704780B499
:1007700083B000AF78607B6818460C37BD465DF8E3
:10078000047B704780B584B000AFF860B9607A60D0
:10079000BB681A68FB681A607868FFF7E8FF0346D1
:1007A0001B689AB2FB689A80FB6818461037BD46F2
:1007B00080BD2DE9F04FBFB000AF78656B463B655B
:1007C00000233B670023A7F874307B6DB3F8203B10
:1007D0009BB2A7F87430B7F87430002B00F00E8489
:1007E000B7F87430591EC7F8DC100B4601330022ED
:1007F0001C4615464FF000024FF00003EB0043EAA1
:100800005473E2000B4601330022984691464FF0A4
:1008100000024FF000034FEAC90343EA58734FEA5E
:10082000C8020B4601330733DB08DB00ADEB030DD9
:100830006B460033C7F8D830D7F8D8303B677B6DAC
:100840000833184602F0A6FA7B6D03F54C707B6DF9
:1008500003F54C72B7F87430D1183B6F1A4600F0AC
:10086000ACFC7A6D0023A2F8203B7B6D0833184660
:1008700002F0AAFA386F3A6FB7F874301344324670
:10088000194600F0B2FC0346A7F8D630386F3A6F2D
:10089000B7F874301344BA79194600F0B9FC03462E
:1008A000A7F8D430386F3A6FB7F874301344FA7938
:1008B000194600F0C0FC0346A7F8E030B7F8D63080
:1008C000002B03D0B7F8D630591E00E00021C7F83E
:1008D000D0100B46013300229A4693464FF0000297
:1008E0004FF000034FEA0B1343EA1A734FEA0A1260
:1008F0000B4601330022BB64FA644FF000024FF054
:100900000003D7E9124528460301204643EA107345
:10091000204602010B4601335B000733DB08DB0096
:10092000ADEB030D6B4601335B085B00C7F8CC30C1
:10093000B7F8D430002B03D0B7F8D430591E00E0FC
:100940000021C7F8C8100B46013300223B647A64CB
:100950004FF000024FF00003D7E91045284603018D
:10096000204643EA1073204602010B460133002261
:10097000BB63FA634FF000024FF00003D7E90E4566
:1009800028460301204643EA1073204602010B4625
:1009900001335B000733DB08DB00ADEB030D6B4677
:1009A00001335B085B00C7F8C430B7F8E030002BB8
:1009B00003D0B7F8E030591E00E00021C7F8C0109E
:1009C0000B46013300223B637A634FF000024FF085
:1009D0000003D7E90C4528460301204643EA10737B
:1009E000204602010B4601330022BB62FA624FF03F
:1009F00000024FF00003D7E90A45284603012046CC
:100A000043EA1073204602010B4601335B000733B3
:100A1000DB08DB00ADEB030D6B4601335B085B00CD
:100A2000C7F8BC30D7F8CC30BB670023FB6707F1B1
:100A30007C0207F1780107F168031846FFF7A2FE70
:100A4000D7F8C430C7F880300023C7F8843007F1E6
:100A5000840207F1800107F160031846FFF792FE58
:100A6000D7F8BC30C7F888300023C7F88C3007F1BE
:100A70008C0207F1880107F158031846FFF782FE40
:100A80000023A7F8E230B7F8E220B7F87430013B52
:100A90009A424EDA3A6FB7F8E23013441B78B52B1E
:100AA00027D0B52B3ADC0D2B0ED0242B36D1BA6EC5
:100AB000B7F86C30591C89B2A7F86C105B0013446E
:100AC000B7F8E2201A802EE03A6FB7F8E23001332F
:100AD00013441B780A2B23D13A6EB7F86430591CA3
:100AE00089B2A7F864105B001344B7F8E2201A80BB
:100AF00016E03A6FB7F8E230013313441B78622BEB
:100B000010D1BA6DB7F85C30591C89B2A7F85C10E7
:100B10005B001344B7F8E2201A8003E000BF02E054
:100B200000BF00E000BFB7F8E2300133A7F8E230C1
:100B3000A9E7B7F85C30013BC7F8E430B7F85C30A0
:100B4000012B1AD9D7F8E430002B16DBB7F8743034
:100B5000043BB96DD7F8E42052000A44128893424E
:100B60000ADCB7F8E030013BA7F8E030D7F8E43012
:100B7000013BC7F8E430E1E700BFB7F8E0305C1EA6
:100B8000C7F8B8402346013300223B627A624FF037
:100B900000024FF00003D7E9085631464B012946C1
:100BA00043EAD16329464A01234601330022BB614F
:100BB000FA614FF000024FF00003D7E906563146C4
:100BC0004B01294643EAD16329464A0123460133B2
:100BD0009B000733DB08DB00ADEB030D6B460133F5
:100BE0005B085B00C7F8B430D7F8B4301D46002C62
:100BF00005DB284600F032FB0435013CF7E7002313
:100C0000A7F8EA30B7F8EA20B7F8E0309A4205D200
:100C1000B7F8EA300133A7F8EA30F3E70023C7F862
:100C2000EC30B7F8E030002B23D0B7F8E030D7F83D
:100C3000EC209A421DD2D7F8B430D7F8EC2033F824
:100C400022301946D7F8B420D7F8EC309B00134473
:100C50005B880B44B7F87420934204DDB7F8E030AA
:100C6000013BA7F8E030D7F8EC300133C7F8EC309F
:100C7000D7E7B7F86420B7F86C30934238BF134613
:100C80009BB2C7F8B0306B461E46D7F8B0305C1E3A
:100C9000C7F8AC402346013300223B617A614FF034
:100CA00000024FF00003D7E9048949464B01414651
:100CB00043EAD16341464A01234601330022BB6027
:100CC000FA604FF000024FF00003D7E9028949466D
:100CD0004B01414643EAD16341464A012346013371
:100CE0009B000733DB08DB00ADEB030D6B460133E4
:100CF0005B085B00C7F8A830D7F8A8301D46002C69
:100D000005DB284600F0AAFA0435013CF7E7B7F8FE
:100D10006C30A7F8D630B7F86430A7F8D430002389
:100D2000A7F86430B7F86430A7F86C300023A7F850
:100D3000F030B7F86C30B7F8D6209A426ED9B7F8D1
:100D40006430B7F8D4209A4268D9BA6EB7F86C30DC
:100D50005B0013441A88396EB7F864305B000B44AB
:100D60001B889A4206D9B7F8643001339BB2A7F8C2
:100D70006430DEE7B7F8F0305A1CA7F8F0209B008B
:100D8000D7F8A820D418BA6EB7F86C30591C89B2BD
:100D9000A7F86C105B00D1183A6EB7F86430581C95
:100DA00080B2A7F864005B0013441B880233C7F8C5
:100DB000943007F1940207F19003184600F06AFAA4
:100DC00007F190031946204600F07EFAB7F86C3020
:100DD000B7F8D6209A42ACD9BA6EB7F86C305B003F
:100DE00013441A88B7F8F030013BD7F8A8109B00DD
:100DF0000B445B889A429CD2BA6EB7F86C30591C8F
:100E000089B2A7F86C105B001344B7F8F020013AE0
:100E10001988D7F8A83023F82210D7E70023A7F8BD
:100E2000F230B7F8F220B7F8F0309A4222D23B6F96
:100E3000B7F8F210D7F8A82032F8212098183A6FA6
:100E4000B7F8F230D7F8A8109B000B445B881A441F
:100E500007F198030146184600F051FA07F198038C
:100E60001946786D00F0D6F8B7F8F2300133A7F8DC
:100E7000F230D6E7B7F8E030002B0FD0B7F8E0201B
:100E8000D7F8B43033F822301946B7F8E030D7F845
:100E9000B4209B0013445B880B4400E00023C7F898
:100EA000A430B7F8F030002B09D0B7F8F030013B90
:100EB000D7F8A8209B0013445B88023300E000238E
:100EC000C7F8A030D7F8A420D7F8A0309A4202DDA6
:100ED000D7F8A43001E0D7F8A030C7F8F430D7F83D
:100EE000F430002B07D0B7F87430C7F8F430D7F8D7
:100EF000F430002B01D0012300E00023002B78D137
:100F00007B6DB3F8203B9BB2002B14BF0123002361
:100F1000DBB2002B4CD0B7F874301A467B6DB3F8B7
:100F2000203B9BB213447A6DB2F82E239342CCBF80
:100F300001230023DBB2002B5DD17B6D0833184603
:100F400001F028FF7B6D03F54C707B6D03F54C734E
:100F50007A6DB2F8202B92B299183A6FD7F8F43024
:100F600013441A4600F029F97B6DB3F8203B9AB27E
:100F7000B7F8743013449BB2A7F874303A6FD7F8BF
:100F8000F430D0183B6FB7F8742099187B6D03F5D7
:100F90004C731A4600F011F9D7F8F4309AB27B6D11
:100FA000A3F8202B7B6D0833184601F00DFF1CE0E1
:100FB0007B6D0833184601F0EDFE3A6FD7F8F43038
:100FC000D0183B6FB7F8742099187B6D03F54C73FC
:100FD0001A4600F0F2F8B7F874207B6DA3F8202BC6
:100FE0007B6D0833184601F0EFFEB546D7F850D0B8
:100FF0000BE000BF00E000BFB54600E000BFD7F83F
:1010000050D002E0B54606F035FFFC37BD46BDE8DE
:10101000F08F000080B594B000AF78603960386818
:1010200000F042FC0346FB64FB6C182B41D801A284
:1010300052F823F0B3100008B3100008B3100008F2
:10104000B3100008B310000899100008B31000088E
:10105000B3100008B3100008B3100008B310000864
:10106000B3100008B3100008B3100008B310000854
:10107000B3100008B3100008B3100008B310000844
:10108000B3100008B3100008B3100008B310000834
:10109000B3100008B310000807F1080339681846B8
:1010A00001F056F800BF07F10803184600F066FB90
:1010B00000E000BF5037BD4680BD00BF80B582B0A4
:1010C00000AF78607B681A68054B1B691B689A4201
:1010D00002D1044802F012F800BF0837BD4680BDB7
:1010E00094000020A400002080B582B000AF78609A
:1010F0000B467B807B681A68074BD3F828321B6845
:101100009A4204D17B881946044802F002F800BFD5
:101110000837BD4680BD00BF94000020BC020020FF
:1011200080B582B000AF78607B681A68064B9B6818
:101130001B689A4203D17968044802F06EF800BF38
:101140000837BD4680BD00BF940000209C000020F1
:1011500080B586B000AFF860B9607A607A68BB6825
:10116000D31A7B617B69002B0BDDFB6804331846C7
:1011700000F0DBF803461A467B69934201DA01234B
:1011800000E00023002B14D07B699BB21946F8685D
:1011900001F034FE38613B69002B0AD03A69796866
:1011A000B86800F0CEF87B699BB21946F86801F088
:1011B000A7FE00BF1837BD4680BD90B585B000AF13
:1011C000F860B9607A60F86800F0D3F80446B8684F
:1011D00000F0CFF803467A681946204600F0D4F8AC
:1011E000034618461437BD4690BD90B585B000AF94
:1011F000F860B9603A71184600F0E9F82246B9681B
:10120000F86800F0F7F8034618461437BD4690BD5D
:1012100090B585B000AFF860B9603A71184600F03B
:1012200009F92246B968F86800F017F9034618462C
:101230001437BD4690BD90B585B000AFF860B96079
:101240003A71184600F029F92246B968F86800F0AA
:1012500037F9034618461437BD4690BD80B483B0B5
:1012600000AF78607B6800221A807B6800225A8079
:101270007B6818460C37BD465DF8047B704780B428
:1012800083B000AF78607B6818460C37BD465DF8C8
:10129000047B704780B584B000AFF860B9607A60B5
:1012A000B86800F02DF903461A88FB681A80786840
:1012B000FFF7E5FF03461B689AB2FB685A80FB689C
:1012C00018461037BD4680BD80B582B000AF78604B
:1012D00039603B68184600F01EF903461A887B689F
:1012E0001A803B680233184600F015F903461A8845
:1012F0007B685A807B6818460837BD4680BD80B43D
:1013000085B000AFF860B9607A60FB68BA681A60AF
:101310007A68BB68D31A1A46FB685A60FB6818469D
:101320001437BD465DF8047B704780B483B000AFCE
:1013300078604FF4007318460C37BD465DF8047BA7
:10134000704790B585B000AFF860B9607A60F86812
:1013500000F0ECF80446B86800F0E8F803467A6854
:101360001946204600F0EDF8034618461437BD46EE
:1013700090BD80B483B000AF78607B6818460C37AE
:10138000BD465DF8047B7047B0B584B000AFF8602F
:10139000B9607A60F86800F0F7F80446B86800F0C1
:1013A000F3F805467B68184600F0EEF803461A4647
:1013B0002946204600F0F3F802463B1D1146184628
:1013C00000F0FDF8034618461037BD46B0BDB0B575
:1013D00084B000AF38713B1D184600F0FCF807F1EF
:1013E0000C032946184600F001F900BF20461037CB
:1013F000BD46B0BD80B586B000AFF860B9603A7147
:1014000000237B61FA68BB689A420ED03B1DF968E5
:10141000184600F0F9F80346002B02D07B6901332F
:101420007B61FB680133FB60ECE77B69184618378A
:10143000BD4680BDB0B584B000AF38713B1D1846C5
:1014400000F0F3F807F10C032946184600F0F8F80D
:1014500000BF20461037BD46B0BD80B586B000AF96
:10146000F860B9603A7100237B61FA68BB689A4200
:101470000ED03B1DF968184600F0F0F80346002B2B
:1014800002D07B6901337B61FB680133FB60ECE7D1
:101490007B6918461837BD4680BDB0B584B000AF33
:1014A00038713B1D184600F0EAF807F10C03294695
:1014B000184600F0EFF800BF20461037BD46B0BD1B
:1014C00080B586B000AFF860B9603A7100237B61E7
:1014D000FA68BB689A420ED03B1DF968184600F0C6
:1014E000E7F80346002B02D07B6901337B61FB6880
:1014F0000133FB60ECE77B6918461837BD4680BDB9
:1015000080B483B000AF78607B6818460C37BD4666
:101510005DF8047B704780B483B000AF78607B686F
:1015200018460C37BD465DF8047B704780B483B025
:1015300000AF78607B6818460C37BD465DF8047BC9
:101540007047B0B584B000AFF860B9607A60F868F1
:1015500000F0BFF80446B86800F0BBF805467B68A9
:10156000184600F011F803461A462946204600F0B6
:10157000BBF802463B1D1146184600F020F8034612
:1015800018461037BD46B0BD80B483B000AF786058
:101590007B6818460C37BD465DF8047B704780B504
:1015A00084B000AFF860B9607A607A68B968F868AA
:1015B00000F0AAF8034618461037BD4680BD80B437
:1015C00083B000AF786039603B6818460C37BD4681
:1015D0005DF8047B704780B483B000AF78607B68AF
:1015E00018460C37BD465DF8047B704780B582B065
:1015F00000AF786039703B461846FFF7ECFF7B6818
:1016000018460837BD4680BD80B582B000AF78600F
:1016100039607A683B681B7819461046FFF771F805
:10162000034618460837BD4680BD80B483B000AF7E
:1016300078607B6818460C37BD465DF8047B7047C0
:1016400080B582B000AF786039703B461846FFF72E
:10165000ECFF7B6818460837BD4680BD80B582B078
:1016600000AF786039607A683B681B78194610468D
:10167000FFF759F8034618460837BD4680BD80B4C9
:1016800083B000AF78607B6818460C37BD465DF8C4
:10169000047B704780B582B000AF786039703B46FC
:1016A0001846FFF7ECFF7B6818460837BD4680BD3B
:1016B00080B582B000AF786039607A683B681B788B
:1016C00019461046FFF741F8034618460837BD464D
:1016D00080BD80B483B000AF78607B6818460C375B
:1016E000BD465DF8047B704780B584B000AFF860FC
:1016F000B9607A607A68B968F86800F015F803464E
:1017000018461037BD4680BD80B584B000AFF86084
:10171000B9607A607A68B968F86800F015F803462D
:1017200018461037BD4680BD80B584B000AFF86064
:10173000B9607A607A68B968F86800F005F803461D
:1017400018461037BD4680BD80B586B000AFF86042
:10175000B9607A60BA68FB68D31A7B617B69002B39
:1017600005D07B691A46F968786807F065F87B69E7
:101770007A68134418461837BD4680BD80B582B0DC
:1017800000AF7860054A7B681A607B681846FEF7F0
:10179000ABFE7B6818460837BD4680BD64AD0008C7
:1017A00080B582B000AF78607868FFF7E7FF44212A
:1017B000786806F05DFB7B6818460837BD4680BD3B
:1017C00080B483B000AF78607B685B6818460C37E4
:1017D000BD465DF8047B704780B483B000AF78608D
:1017E0007B681B6818460C37BD465DF8047B704764
:1017F00080B584B000AFF860B9607A603B60BB68C8
:101800001A687B68D1183B68B3F1FF3F04D1BB680D
:101810005A687B68D31A00E03B681A46F86800F003
:10182000D3F8F8681037BD4680BD80B483B000AFF0
:10183000786039603B681B6818460C37BD465DF818
:10184000047B704780B582B000AF786039607B68F8
:1018500018683B6819687B685B681A4607F0A4F94A
:101860000346002B0CBF01230023DBB218460837C8
:10187000BD4680BD80B582B000AF7860084A7B6805
:101880001A607B6824221A717B6808330549184660
:10189000FEF788FE7B6818460837BD4680BD00BF4E
:1018A00010AD000874AB000890B58DB000AF786043
:1018B0007868FFF785FF0346052B94BF01230023BB
:1018C000DBB2002B01D0192377E07868FEF7F0FD3A
:1018D00004467868FEF7F8FD01462C23FB7407F1F7
:1018E00013031A46204600F082F80346FB6278682C
:1018F000FEF7EAFD0246FB6A934209D07868FEF7DC
:10190000D7FD03460133FA6A9A4201D9012300E068
:101910000023002B50D07868FEF7CAFD0346591CFF
:1019200007F10803FA6A184600F075F807F1140386
:1019300024491846FEF736FE07F1140207F10803A2
:1019400011461846FFF77EFF0346002B14D0786837
:10195000FEF7AEFD0346591CFB6ADA1C07F11C03B7
:10196000184600F058F807F11C0207F10803114669
:101970001846FFF75AFF1DE007F108031846FFF766
:101980001FFF0346052B0CBF01230023DBB2002BF6
:1019900010D007F1240007F108014FF0FF330222B5
:1019A000FFF726FF07F1240207F108031146184646
:1019B000FFF73BFF192300E0192318463437BD46D3
:1019C00090BD00BF78AB000880B485B000AFF86070
:1019D000B9607A60FB68BA681A60FB687A685A6016
:1019E000FB6818461437BD465DF8047B704780B528
:1019F00084B000AFF860B9607A60786800F021F8D0
:101A000003461A46B968F86800F02AF803461846F3
:101A10001037BD4680BD80B485B000AFF860B960B6
:101A20007A60FB68BA681A607A68BB68D31A1A468B
:101A3000FB685A60FB6818461437BD465DF8047BA6
:101A4000704780B584B000AF786007F10C03796807
:101A5000184600F01CF8FB6818461037BD4680BDDC
:101A6000B0B584B000AFF860B9607A60FC6807F187
:101A70000C03184600F01AF82B467A68B96820461D
:101A800000F01FF8034618461037BD46B0BD80B4BD
:101A900083B000AF786039607B683A681A607B6811
:101AA00018460C37BD465DF8047B704780B483B0A0
:101AB00000AF786000BF18460C37BD465DF8047B68
:101AC000704780B586B000AFF860B9607A603B704F
:101AD000BA68FB68D31A9B107B617B69002B37DDEA
:101AE0003B1DF968184600F06BF80346002B01D047
:101AF000FB6861E0FB680133FB603B1DF968184639
:101B000000F05EF80346002B01D0FB6854E0FB6850
:101B10000133FB603B1DF968184600F051F803469D
:101B2000002B01D0FB6847E0FB680133FB603B1DE5
:101B3000F968184600F044F80346002B01D0FB6812
:101B40003AE0FB680133FB607B69013B7B61C4E7E2
:101B5000BA68FB68D31A032B06D0032B2BDC012BAE
:101B60001CD0022B0DD026E03B1DF968184600F072
:101B700027F80346002B01D0FB681DE0FB6801330A
:101B8000FB603B1DF968184600F01AF80346002B6D
:101B900001D0FB6810E0FB680133FB603B1DF96876
:101BA000184600F00DF80346002B01D0FB6803E057
:101BB000FB680133FB60BB6818461837BD4680BD23
:101BC00080B483B000AF786039603B681A787B6876
:101BD0001B681B789A420CBF01230023DBB2184616
:101BE0000C37BD465DF8047B704780B483B000AF0E
:101BF00078607B6800221A607B6800225A607B68EC
:101C000018460C37BD465DF8047B704780B582B03E
:101C100000AF78607868FFF7D3FD034618460837B1
:101C2000BD4680BD80B483B000AF78607B685B68E0
:101C3000002B0CBF01230023DBB218460C37BD4636
:101C40005DF8047B704780B483B000AF7860396082
:101C50007B681A683B6813441B7818460C37BD46EE
:101C60005DF8047B704780B582B000AF786078681B
:101C700000F05AF8034618460837BD4680BD90B5B7
:101C800087B000AF786039607B681846FFF7ADFF1A
:101C90007B6808331846FFF7A8FF3868FFF7B6FFE0
:101CA0000346022B8CBF01230023DBB2002B22D082
:101CB0007C683868FFF7AAFF0346033B07F108007A
:101CC00000223968FFF794FD07F108031946204602
:101CD000FFF7ABFD7B6803F1080407F110004FF03C
:101CE000FF3302223968FFF783FD07F1100319461D
:101CF0002046FFF79AFD7B6818461C37BD4690BD0D
:101D000080B582B000AF786039603868FFF764FD55
:101D10007B681A46034906F019FF7B6818460837A6
:101D2000BD4680BD54AC000880B588B000AF786077
:101D30002A21786800F06BFB0346FB617868FFF7A7
:101D400071FF0346002B03D1FB69B3F1FF3F01D1C3
:101D5000012300E00023002B01D0002324E0002316
:101D6000FB7307F110000523FA697968FFF740FD5E
:101D700007F110031846FFF72FFD07F10F031A466E
:101D80000B4906F0E3FEB861BB69012B01D00023CB
:101D90000AE0786800F00EF803461A46FB7B9A4288
:101DA0000CBF01230023DBB218462037BD4680BD9F
:101DB0005CAC000880B588B000AF78600023FB778A
:101DC0007B687B617869FEF773FBB8617869FEF721
:101DD0007BFB3861BA693B699A4215D0BB69FB60ED
:101DE000FB681B78242B09D0FB681B782A2B0AD0B0
:101DF000FB681A78FB7F5340FB7700E000BFBB69AC
:101E00000133BB61E6E700BFFB7F18462037BD46C4
:101E100080BD000080B584B002AF7860396038685A
:101E2000FFF7DAFC7A687B68591C7B6804330093FF
:101E30000B46044906F08AFE7B6818460837BD4603
:101E400080BD00BFD4AC000880B586B000AF78601C
:101E500039602E21386800F0B1FA03467B617B6956
:101E6000B3F1FF3F0AD03868FFF7D0FE0346052BD9
:101E700004D97B69032B01D9012300E00023002B47
:101E800011D07B69023B07F10C00094A072106F0DB
:101E900029FE3868FFF7A0FC7A687B68043307F1F5
:101EA0000C0106F053FE7B6818461837BD4680BD0E
:101EB000E4AC000880B485B000AFF8603B1D83E857
:101EC0000600BB8807EE903AF8EE677A9FED077A36
:101ED00027EE877AD7ED027A77EE277AB0EE670A97
:101EE0001437BD465DF8047B704700BF00007042A8
:101EF00080B582B000AF78607B681846FFF775FE4A
:101F00007B6808331846FFF770FE7B681846083771
:101F1000BD4680BD80B582B000AF786039607B6817
:101F20003A6811461846FFF780FC7B6803F1080207
:101F30003B68083319461046FFF777FC7B68184664
:101F40000837BD4680BD000090B58FB000AF786007
:101F500039607B681846FFF78DFC7C4A7B681A6005
:101F60007B6810331846FFF7C3FF7B6803F110044A
:101F70000021386800F002F9024607F10C0311460F
:101F80001846FFF77CFE07F10C0319462046FFF7C1
:101F9000C1FF7B6803F120040121386800F0EEF8EE
:101FA000024607F11C0311461846FFF74DFF07F1E3
:101FB0001C0393E806002046FFF77CFF02213868E7
:101FC00000F0DCF803461846FFF72CFE034683F0CA
:101FD0000103DBB2002B0ED00221386800F0CEF8EE
:101FE000034600211846FFF72EFE03461A467B687B
:101FF00083F8282003E07B68202283F828207B6870
:1020000003F12C040321386800F0B8F8024607F108
:10201000240311461846FFF717FF07F1240393E83E
:1020200006002046FFF746FF0421386800F0A6F8B6
:1020300003461846FFF7F6FD034683F00103DBB2C3
:10204000002B0ED00421386800F098F803460021D8
:102050001846FFF7F8FD03461A467B6883F83420DC
:1020600003E07B68202283F834200521386800F0E3
:1020700085F8024607F12C0311461846FFF7CAFE01
:102080007B68383307F12C0292E8030083E80300F1
:102090000621386800F072F803461846FFF7C2FDC3
:1020A000034683F00103DBB2002B0ED00621386813
:1020B00000F064F8034600211846FFF7C4FD03460C
:1020C0001A467B6883F8402003E07B68202283F86F
:1020D00040200721386800F051F803461846FFF702
:1020E000A1FD034683F00103DBB2002B0ED00721D4
:1020F000386800F043F8034600211846FFF7A3FDB7
:1021000003461A467B6883F8412003E07B6820225F
:1021100083F841200821386800F030F8024607F1C2
:10212000340311461846FFF7EBFD7B6897F834201F
:102130005A717B6805E07B681846FEF7D5F905F013
:1021400099FE18463C37BD4690BD00BF64AD0008FF
:1021500080B594B000AF7860396007F10803396842
:10216000184600F02FF807F1080319467868FFF7C2
:10217000EBFE7B6818465037BD4680BD80B582B007
:1021800000AF786039607B683968184600F0F0F875
:10219000034618460837BD4680BDB0B582B000AFD3
:1021A00078607B6808241D46002C05DB2846FFF775
:1021B0001CFD0835013CF7E77B6818460837BD462B
:1021C000B0BD000090B58FB000AF7860396078681E
:1021D000FFF7E3FF01237B6300233B633868FFF7CE
:1021E00021FD034683F00103DBB2002B07D03868E2
:1021F000FFF739FD0346002B01D0012300E0002347
:10220000002B00F0AC8000213868FFF71CFD03466E
:10221000242B0CBF01230023DBB2002B00F09F8096
:102220000123FB623868FFF7F1FC0246FB6A934228
:1022300034BF01230023DBB2002B51D0F96A386888
:10224000FFF701FD03462C2B0CBF01230023DBB25B
:10225000002B1DD03B6B5A1C3A631946786800F07E
:1022600096F80446FA6A7B6BD31A07F108007A6B7A
:102270003968FFF7BDFA07F1080319462046FFF752
:10228000D4FAFB6A01337B633B6B082B24D947E00C
:10229000F96A3868FFF7D7FC03462A2B0CBF0123E5
:1022A0000023DBB2002B17D03B6B5A1C3A63194654
:1022B000786800F06CF80446FA6A7B6BD31A07F171
:1022C00010007A6B3968FFF793FA07F1100319468B
:1022D0002046FFF7AAFA03E0FB6A0133FB62A1E79D
:1022E0003868FFF793FC0346033BFA6A9A4234BF0F
:1022F00001230023DBB2002B31D0396B786800F06A
:1023000046F8044607F118000323FA6A3968FFF714
:102310006FFA07F1180319462046FFF786FA1EE008
:102320000023BB62BB6A0133BB62BB6A082B94BF4C
:1023300001230023DBB2002B13D0B96A786800F0C8
:1023400026F8044607F1200308491846FEF72AF943
:1023500007F1200319462046FFF767FAE2E700BFBE
:1023600000E000BF78683C37BD4690BD4CAC00082B
:1023700080B483B000AF786039603B68DB007A6876
:10238000134418460C37BD465DF8047B704780B592
:1023900082B000AF786039607B6839681846FFF713
:1023A000E7FF034618460837BD4680BD80B400AF3E
:1023B00000BF1846BD465DF8047B704790B585B0F8
:1023C00000AF78600B46FB707868FEF771F8044642
:1023D0007868FEF779F80146FB1C1A462046FFF79D
:1023E00006FB0346FB607868FEF76EF80246FB6862
:1023F000934206D07868FEF75BF80246FB689B1AAA
:1024000001E04FF0FF3318461437BD4690BD90B53C
:1024100085B000AF78600B46FB707868FEF748F82F
:1024200004467868FEF750F80146FB1CFA1C20466B
:1024300000F016F80346FB607868FEF745F80246A0
:10244000FB68934206D07868FEF732F80246FB68D4
:102450009B1A01E04FF0FF3318461437BD4690BD7C
:102460002DE9F0438BB004AFF860B9607A603B604F
:10247000FC687D6807F10C031846FFF717FB3B1D4E
:10248000184600F014F8FFF791FF8DF808908DF8CA
:1024900004808DF800603B682A46B968204600F049
:1024A00011F8034618461C37BD46BDE8F08380B4DA
:1024B00083B000AF786000BF18460C37BD465DF8AA
:1024C000047B7047B0B58EB002AFF860B9607A6037
:1024D0003B6007F11C03F968184600F057F807F154
:1024E00018037968184600F060F807F12003B9680E
:1024F000184600F04BF807F11C0207F124031146BF
:10250000184600F061F807F128033968184600F012
:102510004CF807F1180207F12C031146184600F099
:1025200063F807F1140007F1280407F1240207F10A
:1025300020018DF8045007F12C030093234600F08E
:1025400063F807F11C0207F114031146184600F066
:102550004FF90346002B01D0BB6813E007F11403C9
:10256000184600F05BF903463B613968786800F073
:1025700061F903465A4207F110031146184600F06C
:102580006DF93B6918463037BD46B0BD80B483B0A5
:1025900000AF786039607B683A681A607B681846DB
:1025A0000C37BD465DF8047B704780B483B000AF44
:1025B000786039607B683A681A607B6818460C3727
:1025C000BD465DF8047B704780B483B000AF78608F
:1025D00039603B681A687B681A607B6818460C375C
:1025E000BD465DF8047B704780B483B000AF78606F
:1025F00039603B681A687B681A607B6818460C373C
:10260000BD465DF8047B7047B0B592B000AFF8608E
:10261000B9607A603B607968B86800F0E9F8034611
:10262000002B06D1B96D386800F02BF90346002B5A
:1026300001D0012300E00023002B04D0B968F86822
:10264000FFF7C2FFD0E007F1180339681846FFF71B
:10265000CBFF07F11803184600F029F90346B96DBE
:10266000184600F00EF90346002B23D007F11C0397
:10267000B9681846FFF7A8FF07F1200379681846E4
:10268000FFF7A2FF07F1280339681846FFF7ACFFF0
:1026900007F1240307F128022946184600F017F92C
:1026A000F86807F1240307F1200207F11C0100F08C
:1026B00034F999E007F11403B9681846FFF784FF6D
:1026C00007F13003B9681846FFF77EFF07F13403BE
:1026D00079681846FFF778FF07F13C033968184618
:1026E000FFF782FF07F1380307F13C022146184645
:1026F00000F0EDF807F12C0007F1380307F1340280
:1027000007F1300100F009F9BB68FA6A1A607968CC
:10271000B86800F06DF80346002B04D07968F868BB
:10272000FFF752FF60E007F1180207F110031146AE
:102730001846FFF759FFBB681B687B6107F114035C
:10274000184600F015F903467968184600F050F86D
:102750000346002B04D07968F868FFF735FF43E0A3
:1027600007F1140207F1400311461846FFF72CFF4A
:1027700007F1100207F1440311461846FFF734FF32
:1027800007F1440207F1400107F15C03184600F02D
:10279000FFF80346002B23D007F11003184600F082
:1027A00086F80346B96D184600F06BF80346002B17
:1027B00004D0B968F868FFF707FF15E007F11403C4
:1027C000184600F0D5F803467968184600F010F86E
:1027D0000346002BC4D07968F868FFF7F5FE03E0E4
:1027E000B86800F0C5F86BE7F8684837BD46B0BD7B
:1027F00090B583B000AF78603960786800F00EF86B
:102800000446386800F00AF803469C420CBF0123D6
:102810000023DBB218460C37BD4690BD80B483B0B0
:1028200000AF78607B681B6818460C37BD465DF8C2
:10283000047B7047B0B582B000AF786039607C68C7
:102840003B1D1846FFF733FE2A463968204600F044
:10285000B8F8034618460837BD46B0BD90B585B0F8
:1028600000AF786039603B68FB607868FFF71EF95D
:102870002246F968786800F0B3F800BF1437BD4607
:1028800090BD90B583B000AF78603960786800F093
:10289000B9F80446386800F0B5F803469C420CBF0E
:1028A00001230023DBB218460C37BD4690BD80B42F
:1028B00083B000AF78607B681B685A1E7B681A6023
:1028C0007B6818460C37BD465DF8047B704780B5C1
:1028D00086B000AFF86039727A6007F11403796846
:1028E0001846FFF781FE07F114031946F86800F057
:1028F00095F8F8681837BD4680BD80B582B000AF46
:10290000786039607B683A6811461846FFF76CFEBC
:102910007B6818460837BD4680BD90B58BB002AFC6
:10292000F860B9607A603B6007F11403B968184633
:10293000FFF74AFE07F1180379681846FFF744FECF
:1029400007F11C0339681846FFF7D7FFB86800F095
:1029500074F8F86807F11C0307F1180207F1140175
:102960008DF8004000F074F8F8682437BD4690BD3B
:1029700080B483B000AF78607B681B685A1E7B68A8
:102980001A607B6818460C37BD465DF8047B7047BB
:1029900090B585B000AFF860B9607A60B86800F0B3
:1029A00023F903461C78786800F02FF903461B785A
:1029B0009C420CBF01230023DBB218461437BD46EE
:1029C00090BD80B485B000AFF860B9603A71BA6864
:1029D000FB68D31A18461437BD465DF8047B704770
:1029E00080B485B000AFF860B9603A71FB681A68CE
:1029F000BB681A44FB681A6000BF1437BD465DF817
:102A0000047B704780B483B000AF78607B681B683C
:102A100018460C37BD465DF8047B704780B582B020
:102A200000AF786039607B6839681846FFF7DCFDD5
:102A30007B6818460837BD4680BD80B483B000AFC0
:102A4000786000BF18460C37BD465DF8047B7047C0
:102A500080B58CB000AFF860B9607A603B60B9684F
:102A6000786800F0E3F803469B10FB62FB6A002BDA
:102A70005FDD07F11003B9681846FFF7A5FD07F100
:102A800010031946386800F0E3F80346002B04D021
:102A9000B968F868FFF798FDA2E0B868FFF768FF2B
:102AA00007F11403B9681846FFF78EFD07F1140308
:102AB0001946386800F0CCF80346002B04D0B968FA
:102AC000F868FFF781FD8BE0B868FFF751FF07F169
:102AD0001803B9681846FFF777FD07F11803194680
:102AE000386800F0B5F80346002B04D0B968F868E0
:102AF000FFF76AFD74E0B868FFF73AFF07F11C03BF
:102B0000B9681846FFF760FD07F11C0319463868DD
:102B100000F09EF80346002B04D0B968F868FFF770
:102B200053FD5DE0B868FFF723FFFB6A013BFB62E2
:102B30009CE7B968786800F079F80346032B06D063
:102B4000032B49DC012B30D0022B17D044E007F1D6
:102B50002003B9681846FFF737FD07F1200319462F
:102B6000386800F075F80346002B04D0B968F8689F
:102B7000FFF72AFD34E0B868FFF7FAFE07F12403F7
:102B8000B9681846FFF720FD07F124031946386895
:102B900000F05EF80346002B04D0B968F868FFF730
:102BA00013FD1DE0B868FFF7E3FE07F12803B968DD
:102BB0001846FFF709FD07F128031946386800F0A9
:102BC00047F80346002B04D0B968F868FFF7FCFC0F
:102BD00006E0B868FFF7CCFE7968F868FFF7F4FC08
:102BE000F8683037BD4680BD80B485B000AF7860EE
:102BF0007B681B68FB60FB68013BFB60FB68184659
:102C00001437BD465DF8047B704780B485B000AFD3
:102C100078607B681B68FB60FB68013BFB60FB68BE
:102C200018461437BD465DF8047B704790B583B0F5
:102C300000AF786039603868FFF7F0FD04467868C7
:102C4000FFF7ECFD0346E31A18460C37BD4690BD6E
:102C500090B583B000AF786039603868FFF7C4FF83
:102C600003461C787B681846FFF7CFFF03461B78A6
:102C70009C420CBF01230023DBB218460C37BD4633
:102C800090BD80B582B000AF786039607B683A68EB
:102C90001A607B680433184600F0E6FA02467B6847
:102CA000C3F804227B680433184600F0DDFA0246BC
:102CB0007B68C3F808227B680433184600F0D4FA16
:102CC00002467B68C3F80C227B680433184600F088
:102CD000CBFA02467B68C3F810227B681846083797
:102CE000BD4680BD80B582B000AF786039607B683A
:102CF0003A681A607B6804334FF4817200211846E9
:102D000005F0B4FD7B68FE229A807B6803F583732F
:102D100040F2F4720021184605F0A8FD7B684FF4DC
:102D2000FE62A3F806217B68002283F8FA287B68FC
:102D300018460837BD4680BD80B584B000AFF86046
:102D4000B96011461A460B46FB711346BB71FB680E
:102D5000BA681A60FB68FA791A71FB68BA795A7115
:102D6000FB683A7E9A71FB6803F10802FB681B68F6
:102D700019461046FFF785FFFB6803F50872FB68EC
:102D80001B6819461046FFF7ADFFFB681846103761
:102D9000BD4680BD80B582B000AF78607B6893F996
:102DA0000430184600F03BFF7B6893F90530184665
:102DB00000F035FF7B6893F90630184600F02FFFCE
:102DC00000BF0837BD4680BD80B582B000AF7860D7
:102DD0007B6893F90430184600F013FF7B6893F981
:102DE0000530184600F00DFF7B6893F90630184651
:102DF00000F007FF00BF0837BD4680BD90B587B023
:102E000000AF78600B467B807B88B3F5007F01D9EB
:102E1000002371E07B68D3F804227B68D3F8143276
:102E20009A422CD37B680433184600F02AFA0246F3
:102E30007B68D3F80432D31AFB82FA8A7B889A42E1
:102E400013D37B68D3F804323B617B68D3F8042248
:102E50007B881A447B68C3F804227B68D3F8042279
:102E60007B68C3F80C223B6946E07B680433184654
:102E700000F015FA02467B68C3F8042200E000BFA8
:102E800000F074FD0346FB607B68D3F814427B6856
:102E90000433184600F003FA0346E31AFB82FA8A69
:102EA0007B889A420DD37B68D3F80432BB607B6881
:102EB000D3F804227B881A447B68C3F80422BB68D9
:102EC0001AE0786800F0B5F80346002B11D03220E4
:102ED00000F058FD00F04AFD0246FB68D31A40F2AC
:102EE000F312934294BF01230023DBB2002B02D0E4
:102EF000CAE7002300E0002318461C37BD4690BDFA
:102F000080B582B000AF78600B467B807B68D3F8D9
:102F100008227B881A447B68C3F808227B68D3F8B0
:102F200008227B68D3F80C329A420AD97B680433B2
:102F3000184600F0B4F902467B881A447B68C3F84F
:102F400008227B68D3F808227B68D3F80C329A42B7
:102F500005D97B68D3F80C227B68C3F8082278680F
:102F600000F004F800BF0837BD4680BD80B582B0D0
:102F700000AF7860786800F05CF8034683F00103E6
:102F8000DBB2002B52D07B68D3F810227B68C3F8E9
:102F900014227B68D3F810227B68D3F80C329A4253
:102FA00017D37B680433184600F079F902467B6832
:102FB000C3F814227B680433184600F070F9024607
:102FC0007B68C3F810227B68D3F804227B68C3F8BF
:102FD0000C22786800F049F8034683F00103DBB265
:102FE000002B22D17B68D3F808227B68D3F81032FB
:102FF0009A4203D97B68D3F8083202E07B68D3F8A1
:103000000C327A68C2F810327B6818687B68D3F893
:1030100014127B68D3F810227B68D3F81432D31AC9
:103020009BB21A4603F09EF900E000BF0837BD4688
:1030300080BD80B584B000AF78607B681B6818469F
:1030400003F058FD0346FB60FB6803F02003002BF0
:1030500004D0FB6803F02103212B01D1012300E000
:10306000002318461037BD4680BD80B483B000AF42
:1030700078607B68D3F810227B68D3F808329A42D4
:1030800014BF01230023DBB218460C37BD465DF8A0
:10309000047B704780B582B000AF78607B681868A9
:1030A0007B68991D7B689B881A4604F09AFD7B68B3
:1030B000012283F8FA2800BF0837BD4680BD80B5DD
:1030C00082B000AF786039607B681B68184603F0F7
:1030D0000DF90346002B0CBF01230023DBB2002BAC
:1030E00008D07B681B683A685A607B681B68184682
:1030F00003F0ACF800BF0837BD4680BD80B582B094
:1031000000AF78607868FFF731FF00BF0837BD4631
:1031100080BD80B584B000AF78600B467B807B6853
:10312000B3F804319BB27A889A420CBF0123002382
:10313000DBB2002B6DD17B68B3F8F8389BB219462F
:103140007B887A68B2F8042192B29B1A0B447A68A1
:10315000B2F8062193420FDD7B68B3F806217B6845
:10316000B3F8F8389BB2D31A9AB27B68B3F804313B
:103170009BB213449BB200E07B88FB817B68B3F871
:1031800004319BB27A889A4206D37B68B3F8043143
:103190009BB2FA899A4201D2012300E00023002B5E
:1031A00003D07B680022A3F804217B6803F58473B5
:1031B0007A68B2F8F82892B298187B6806337A6871
:1031C000B2F8042192B29918FB897A68B2F8042106
:1031D00092B29B1A1A4605F021FBFB897A68B2F875
:1031E000042192B2991A7B68B3F8F8389AB28BB27C
:1031F00013449AB27B68A3F8F8287B689B88FA8905
:103200009A4201D0FA8900E000227B68A3F80421E9
:1032100000E000BF1037BD4680BD80B582B000AF72
:1032200078603960386803F061F8386803F00EF8A8
:103230007B6893F81A3B002B05D07B6803F5087375
:103240001846FFF727FF7B6808331846FFF70DFF86
:103250000346002B04D07B6808331846FFF786FE30
:1032600000BF0837BD4680BD80B582B000AF786032
:103270007B68184600F01FF8034618460837BD461D
:1032800080BD80B582B000AF78607868FFF7ECFF52
:10329000034603F5007318460837BD4680BD80B568
:1032A00082B000AF78607868FFF7DEFF034618460B
:1032B0000837BD4680BD80B483B000AF78607B68BE
:1032C00018460C37BD465DF8047B704780B500AFEB
:1032D00000F0E4FA00F00FF800F002F900F0CEF888
:1032E00000F06AF8FDF720F9642000F04BFB0020A5
:1032F000FDF724F9F8E780B596B000AF07F11403A5
:1033000044220021184605F0B1FA3B4600221A601B
:103310005A609A60DA601A614FF4007001F002FBA3
:103320000346002B14BF01230023DBB2002B01D086
:1033300000F0EEF802237B614FF480733B62402380
:103340007B620223FB6302233B6402237B64102322
:10335000BB640223FB6402233B6502237B6507F108
:103360001403184601F082FB0346002B14BF01230F
:103370000023DBB2002B01D000F0CAF80F233B6022
:1033800003237B600023BB600023FB6000233B61C1
:103390003B460321184601F083FF0346002B14BF70
:1033A00001230023DBB2002B01D000F0B1F800BFF5
:1033B0005837BD4680BD000080B500AF2D4B2E4A6A
:1033C0001A602C4B4FF416425A602A4B00229A6026
:1033D000284B0022DA60274B00221A61254B0C2271
:1033E0005A61244B00229A61224B0022DA61214B60
:1033F00000221A621F4B00225A621E4B00229A6260
:103400001C4802F023FF0346002B14BF01230023B6
:10341000DBB2002B01D000F07BF80021154804F04E
:1034200064FB0346002B14BF01230023DBB2002BF7
:1034300001D000F06DF84FF080610E4804F093FB6E
:103440000346002B14BF01230023DBB2002B01D065
:1034500000F05EF8074804F00DFB0346002B14BF94
:1034600001230023DBB2002B01D000F051F800BF94
:1034700080BD00BFB80B0020004C004080B582B07A
:1034800000AF164B9B6C154A43F004039364134B37
:103490009B6C03F004037B607B68104B9B6C0F4AB2
:1034A00043F0010393640D4B9B6C03F001033B60FD
:1034B0003B68002206210B2000F087FB0B2000F068
:1034C000A0FB002207210C2000F07FFB0C2000F065
:1034D00098FB00BF0837BD4680BD00BF001002400A
:1034E00080B483B000AF094BDB6C084A43F00103A2
:1034F000D364064BDB6C03F001037B607B6800BF89
:103500000C37BD465DF8047B704700BF00100240D9
:1035100080B400AF72B600BFFEE7000080B483B095
:1035200000AF0F4B1B6E0E4A43F0010313660C4BAA
:103530001B6E03F001037B607B68094B9B6D084A9F
:1035400043F080539365064B9B6D03F080533B60C3
:103550003B6800BF0C37BD465DF8047B704700BF79
:103560000010024080B5AEB000AF786007F1A40350
:1035700000221A605A609A60DA601A6107F110033B
:1035800094220021184605F071F97B681B684F4AA8
:10359000934240F0968008233B610023BB6507F10E
:1035A0001003184602F03AF90346002B01D0FFF74A
:1035B000AFFF474B9B6D464A43F400239365444B52
:1035C0009B6D03F40023FB60FB68414BDB6C404ABE
:1035D00043F00103D3643E4BDB6C03F00103BB609B
:1035E000BB680323C7F8A4300223C7F8A830002320
:1035F000C7F8AC300323C7F8B0300823C7F8B4309D
:1036000007F1A40319464FF0904000F0E7FE314B5C
:10361000314A1A602F4B1E225A602E4B00229A60AC
:103620002C4B0022DA602B4B80221A61294B00229E
:103630005A61284B00229A61264B2022DA61254BE1
:1036400000221A62234800F005FB0346002B01D03C
:10365000FFF75EFF7B681F4ADA671E4A7B6893624A
:103660001E4B1F4A1A601D4B1F225A601B4B102213
:103670009A601A4B0022DA60184B80221A61174BAD
:1036800000225A61154B00229A61144B0022DA6124
:10369000124B00221A62114800F0DCFA0346002B9C
:1036A00001D0FFF735FF7B680C4A9A670B4A7B68AD
:1036B000936200220721342000F087FA342000F0C2
:1036C000A0FA00BFB837BD4680BD00BF004C004027
:1036D00000100240480C002008000240A80C002006
:1036E0001C00024080B582B000AF78607B681B6828
:1036F0000F4A934217D10F4B9B6D0E4A23F40023C0
:10370000936503214FF0904000F0FAFF7B68DB6F78
:10371000184600F047FB7B689B6F184600F042FBA1
:10372000342000F07CFA00BF0837BD4680BD00BFE2
:10373000004C00400010024080B400AFFEE780B4AF
:1037400000AFFEE780B400AFFEE780B400AFFEE755
:1037500080B400AFFEE780B400AF00BFBD465DF8A7
:10376000047B704780B400AF00BFBD465DF8047BAA
:10377000704780B400AF00BFBD465DF8047B704762
:1037800080B500AF00F0DEF800BF80BD80B500AFAF
:10379000024800F0D3FC00BF80BD00BF480C0020F1
:1037A00080B500AF024800F0C9FC00BF80BD00BF7B
:1037B000A80C002080B500AF024802F065FE00BFF3
:1037C00080BD00BFB80B002080B400AF01231846B5
:1037D000BD465DF8047B704780B582B000AF78606D
:1037E000396004F0E1FF034616221A604FF0FF3300
:1037F00018460837BD4680BD80B582B000AF7860FE
:103800004FF0FF317868FFF7E7FFFEE780B586B03D
:1038100000AF7860144A154BD31A7B617B693B611A
:10382000134B1B68002B02D1114B124A1A60104B2C
:103830001A687B6813443A699A4207D204F0B4FFCD
:1038400003460C221A604FF0FF3309E0084B1B6857
:10385000FB60074B1A687B681344054A1360FB68DA
:1038600018461837BD4680BD000003200008000040
:10387000080D0020400D002080B400AF064BD3F8A7
:103880008830054A43F47003C2F8883000BFBD4653
:103890005DF8047B704700BF00ED00E080B582B0AA
:1038A00000AF0023FB71032000F084F9002000F03A
:1038B0000DF80346002B02D00123FB7101E0FFF756
:1038C0002DFEFB7918460837BD4680BD80B584B013
:1038D00000AF78600023FB73174B1B78002B23D0BD
:1038E000164B1A68144B1B7819464FF47A73B3FBC6
:1038F000F1F3B2FBF3F3184600F09FF90346002BF7
:103900000FD17B680F2B09D8002279684FF0FF3068
:1039100000F05BF90A4A7B68136007E00123FB7340
:1039200004E00123FB7301E00123FB73FB7B1846DA
:103930001037BD4680BD00BF0800002000000020F9
:103940000400002080B400AF064B1B781A46064BDB
:103950001B681344044A136000BFBD465DF8047B36
:10396000704700BF080000200C0D002080B400AF9D
:10397000034B1B681846BD465DF8047B704700BFCB
:103980000C0D002080B584B000AF7860FFF7EEFF2B
:10399000B8607B68FB60FB68B3F1FF3F05D00A4B62
:1039A0001B781A46FB681344FB6000BFFFF7DEFF7D
:1039B0000246BB68D31AFA689A42F7D800BF00BF24
:1039C0001037BD4680BD00BF0800002080B485B020
:1039D00000AF78607B6803F00703FB600C4BDB688B
:1039E000BB60BA684FF6FF031340BB60FB681A0266
:1039F000BB68134343F0BF6343F40033BB60044A26
:103A0000BB68D36000BF1437BD465DF8047B7047C8
:103A100000ED00E080B400AF044BDB681B0A03F04C
:103A200007031846BD465DF8047B704700ED00E0D3
:103A300080B483B000AF0346FB7197F90730002BC9
:103A40000BDBFB7903F01F02074997F907305B098D
:103A5000012000FA02F241F8232000BF0C37BD46D6
:103A60005DF8047B704700BF00E100E080B483B0E4
:103A700000AF0346FB7197F90730002B12DBFB798F
:103A800003F01F020A4997F907305B09012000FA89
:103A900002F2203341F82320BFF34F8F00BFBFF362
:103AA0006F8F00BF00BF0C37BD465DF8047B7047C9
:103AB00000E100E080B483B000AF03463960FB71E1
:103AC00097F90730002B0ADB3B68DAB20C4997F90B
:103AD00007301201D2B20B4483F800230AE03B689E
:103AE000DAB20849FB7903F00F03043B1201D2B2AA
:103AF0000B441A7600BF0C37BD465DF8047B704757
:103B000000E100E000ED00E080B489B000AFF860B3
:103B1000B9607A60FB6803F00703FB61FB69C3F1DE
:103B20000703042B28BF0423BB61FB690433062B66
:103B300002D9FB69033B00E000237B614FF0FF32B9
:103B4000BB6902FA03F3DA43BB681A407B699A4007
:103B50004FF0FF317B6901FA03F3D9437B680B40D7
:103B6000134318462437BD465DF8047B70470000B8
:103B700080B582B000AF78607B68013BB3F1807F95
:103B800001D301230FE00A4A7B68013B53600F21F8
:103B90004FF0FF30FFF78EFF054B00229A60044B79
:103BA00007221A60002318460837BD4680BD00BFB3
:103BB00010E000E080B582B000AF78607868FFF771
:103BC00005FF00BF0837BD4680BD80B586B000AF99
:103BD0000346B9607A60FB7300237B61FFF71AFF2D
:103BE00078617A68B9687869FFF78EFF024697F9BD
:103BF0000F3011461846FFF75DFF00BF1837BD466E
:103C000080BD80B582B000AF0346FB7197F90730E5
:103C10001846FFF70DFF00BF0837BD4680BD80B5D1
:103C200082B000AF0346FB7197F907301846FFF7E3
:103C30001DFF00BF0837BD4680BD80B582B000AF14
:103C400078607868FFF794FF034618460837BD464A
:103C500080BD000080B584B000AF78607B68002B29
:103C600001D101238DE07B681B681A46474B9A42BD
:103C70000FD87B681B681A46454B1344454AA2FB84
:103C800003231B099A007B685A647B68424A1A64C2
:103C90000EE07B681B681A46404B13443D4AA2FB6A
:103CA00003231B099A007B685A647B683C4A1A64A8
:103CB0007B68022283F825207B681B681B68FB60F9
:103CC000FB6823F4FF4323F07003FB607B689A6872
:103CD0007B68DB681A437B681B691A437B685B69F6
:103CE0001A437B689B691A437B68DB691A437B68CC
:103CF0001B6A1343FA681343FB607B681B68FA680E
:103D00001A60786800F008FB7B689B68B3F5804F09
:103D100002D17B6800225A607B685A687B689B6C82
:103D2000D2B21A607B68DB6C7A68126D5A607B686D
:103D30005B68002B10D07B685B68042B0CD878681C
:103D400000F028FB7B685B6D00221A607B689B6D2E
:103D50007A68D26D5A6008E07B6800225A657B68F9
:103D600000229A657B680022DA657B680022DA63AC
:103D70007B68012283F825207B68002283F82420B9
:103D8000002318461037BD4680BD00BF070402401F
:103D9000F8FFFDBFCDCCCCCC00000240F8FBFDBF4E
:103DA0000004024080B582B000AF78607B68002BD1
:103DB00001D101237BE07B681B681A687B681B6864
:103DC00022F001021A607B681B681A463A4B9A423D
:103DD0000FD87B681B681A46384B1344384AA2FB3D
:103DE00003231B099A007B685A647B68354A1A646E
:103DF0000EE07B681B681A46334B1344304AA2FB23
:103E000003231B099A007B685A647B682F4A1A6453
:103E10007B681B6800221A607B685B6C03F01C02E5
:103E20007B681B6C012101FA02F25A60786800F08D
:103E300073FA7B689B6C00221A607B68DB6C7A6883
:103E4000126D5A607B685B68002B0FD07B685B68E3
:103E5000042B0BD8786800F09DFA7B685B6D00221C
:103E60001A607B689B6D7A68D26D5A607B6800220D
:103E70005A657B6800229A657B680022DA657B6858
:103E80000022DA627B6800221A637B6800225A6390
:103E90007B6800229A637B680022DA637B680022D9
:103EA00083F825207B68002283F82420002318460D
:103EB0000837BD4680BD00BF07040240F8FFFDBFC4
:103EC000CDCCCCCC00000240F8FBFDBF000402408A
:103ED00080B586B000AFF860B9607A603B600023BF
:103EE000FB75FB6893F82430012B01D1022366E0B7
:103EF000FB68012283F82420FB6893F82530DBB2AD
:103F0000012B55D1FB68022283F82520FB68002293
:103F1000DA63FB681B681A68FB681B6822F0010201
:103F20001A603B687A68B968F86800F0B6F9FB680F
:103F30001B6B002B08D0FB681B681A68FB681B68AA
:103F400042F00E021A600FE0FB681B681A68FB68FB
:103F50001B6822F004021A60FB681B681A68FB6881
:103F60001B6842F00A021A60FB689B6C1B6803F432
:103F70008033002B07D0FB689B6C1A68FB689B6C36
:103F800042F480721A60FB685B6D002B07D0FB68FF
:103F90005B6D1A68FB685B6D42F480721A60FB68A7
:103FA0001B681A68FB681B6842F001021A6005E092
:103FB000FB68002283F824200223FB75FB7D184652
:103FC0001837BD4680BD80B485B000AF786000234F
:103FD000FB737B6893F82530DBB2022B08D07B683B
:103FE0000422DA637B68002283F82420012340E066
:103FF0007B681B681A687B681B6822F00E021A60D7
:104000007B689B6C1A687B689B6C22F480721A60D8
:104010007B681B681A687B681B6822F001021A60C3
:104020007B685B6C03F01C027B681B6C012101FA4E
:1040300002F25A607B68DB6C7A68126D5A607B68AA
:104040005B6D002B0CD07B685B6D1A687B685B6DC9
:1040500022F480721A607B689B6D7A68D26D5A6018
:104060007B68012283F825207B68002283F82420C6
:10407000FB7B18461437BD465DF8047B704780B55E
:1040800084B000AF78600023FB737B6893F8253021
:10409000DBB2022B05D07B680422DA630123FB73B9
:1040A00047E07B681B681A687B681B6822F00E0279
:1040B0001A607B681B681A687B681B6822F0010223
:1040C0001A607B689B6C1A687B689B6C22F4807218
:1040D0001A607B685B6C03F01C027B681B6C01211F
:1040E00001FA02F25A607B68DB6C7A68126D5A60E2
:1040F0007B685B6D002B0CD07B685B6D1A687B68FE
:104100005B6D22F480721A607B689B6D7A68D26D59
:104110005A607B68012283F825207B68002283F89F
:1041200024207B689B6B002B03D07B689B6B78689B
:104130009847FB7B18461037BD4680BD80B584B0DC
:1041400000AF78607B681B6C1B68FB607B681B683A
:104150001B68BB607B685B6C03F01C0304229A4005
:10416000FB681340002B26D0BB6803F00403002B30
:1041700021D07B681B681B6803F02003002B07D14C
:104180007B681B681A687B681B6822F004021A604F
:104190007B685B6C03F01C027B681B6C042101FADA
:1041A00002F25A607B681B6B002B71D07B681B6B23
:1041B000786898476CE07B685B6C03F01C03022214
:1041C0009A40FB681340002B2ED0BB6803F002031B
:1041D000002B29D07B681B681B6803F02003002B91
:1041E0000BD17B681B681A687B681B6822F00A0287
:1041F0001A607B68012283F825207B685B6C03F0E2
:104200001C027B681B6C022101FA02F25A607B6877
:10421000002283F824207B68DB6A002B38D07B687F
:10422000DB6A7868984733E07B685B6C03F01C03BB
:1042300008229A40FB681340002B2AD0BB6803F089
:104240000803002B25D07B681B681A687B681B68F5
:1042500022F00E021A607B685B6C03F01C027B6824
:104260001B6C012101FA02F25A607B680122DA63B9
:104270007B68012283F825207B68002283F82420B4
:104280007B685B6B002B04D07B685B6B786898471E
:1042900000BF00BF1037BD4680BD80B485B000AF01
:1042A000F860B9607A603B60FB68DB6CFA68126D9D
:1042B0005A60FB685B6D002B04D0FB689B6DFA684D
:1042C000D26D5A60FB685B6C03F01C02FB681B6CD0
:1042D000012101FA02F25A60FB681B683A685A60D1
:1042E000FB689B68102B08D1FB681B687A689A6092
:1042F000FB681B68BA68DA6007E0FB681B68BA688D
:104300009A60FB681B687A68DA6000BF1437BD46A4
:104310005DF8047B7047000080B485B000AF786022
:104320007B681B681A46174B9A420AD87B685B6CFD
:104330009B089B0003F1804303F502337A68936482
:1043400007E07B685B6C9B089A000F4B13447A680C
:1043500093647B681B68DBB2083B0C4AA2FB032317
:104360001B09FB607B680A4ADA64FB6803F01F03E1
:1043700001229A407B681A6500BF1437BD465DF87C
:10438000047B7047070402401C080240CDCCCCCC13
:104390008008024080B485B000AF78607B685B68BD
:1043A000DBB2FB60FA680B4B13449B001A467B6838
:1043B0005A657B68084A9A65FB68013B03F0030372
:1043C00001229A407B68DA6500BF1437BD465DF86C
:1043D000047B70473F8200104009024080B487B0E0
:1043E00000AF7860396000237B6166E13B681A6842
:1043F00001217B6901FA03F31340FB60FB68002B8A
:1044000000F058813B685B6803F00303012B05D083
:104410003B685B6803F00303022B30D17B689B6829
:104420003B617B695B00032202FA03F3DB433A69D9
:1044300013403B613B68DA687B695B0002FA03F377
:104440003A6913433B617B683A699A607B685B68B1
:104450003B6101227B6902FA03F3DB433A691340B3
:104460003B613B685B681B0903F001027B6902FA50
:1044700003F33A6913433B617B683A695A603B68CE
:104480005B6803F00303032B17D07B68DB683B6199
:104490007B695B00032202FA03F3DB433A691340B2
:1044A0003B613B689A687B695B0002FA03F33A69F7
:1044B00013433B617B683A69DA603B685B6803F0F1
:1044C0000303022B23D17B69DA087B68083253F897
:1044D00022303B617B6903F007039B000F2202FA45
:1044E00003F3DB433A6913403B613B681A697B691C
:1044F00003F007039B0002FA03F33A6913433B619D
:104500007B69DA087B680832396943F822107B68D6
:104510001B683B617B695B00032202FA03F3DB4308
:104520003A6913403B613B685B6803F003027B69B7
:104530005B0002FA03F33A6913433B617B683A6913
:104540001A603B685B6803F44033002B00F0B280D4
:10455000614B1B6E604A43F0010313665E4B1B6E9A
:1045600003F00103BB60BB685C4A7B699B080233B4
:1045700052F823303B617B6903F003039B000F2259
:1045800002FA03F3DB433A6913403B617B68B3F102
:10459000904F2BD07B68524A934225D07B68514A7A
:1045A00093421FD07B68504A934219D07B684F4A90
:1045B000934213D07B684E4A93420DD07B684D4A9C
:1045C000934207D07B684C4A934201D107230EE007
:1045D00008230CE006230AE0052308E0042306E094
:1045E000032304E0022302E0012300E000237A69B0
:1045F00002F00302920093403A6913433B6137494A
:104600007B699B0802333A6941F823203B4B9B6846
:104610003B61FB68DB433A6913403B613B685B6885
:1046200003F48013002B03D03A69FB6813433B610A
:10463000324A3B699360314BDB683B61FB68DB438B
:104640003A6913403B613B685B6803F40013002B3D
:1046500003D03A69FB6813433B61284A3B69D36046
:10466000264B5B683B61FB68DB433A6913403B6167
:104670003B685B6803F40033002B03D03A69FB68A6
:1046800013433B611D4A3B6953601C4B1B683B61F4
:10469000FB68DB433A6913403B613B685B6803F4AA
:1046A0008033002B03D03A69FB6813433B61134A04
:1046B0003B6913607B6901337B613B681A687B69E6
:1046C00022FA03F3002B7FF491AE00BF00BF1C372A
:1046D000BD465DF8047B70470010024000000140B9
:1046E0000004004800080048000C00480010004882
:1046F0000014004800180048001C00480004014055
:1047000080B487B000AF7860396000237B61C9E076
:1047100001227B6902FA03F33A6813403B613B696B
:10472000002B00F0BC80664A7B699B08023352F87C
:104730002330FB607B6903F003039B000F2202FA26
:1047400003F3FA681340FB607B68B3F1904F2BD002
:104750007B685C4A934225D07B685B4A93421FD0BA
:104760007B685A4A934219D07B68594A934213D0C6
:104770007B68584A93420DD07B68574A934207D0D2
:104780007B68564A934201D107230EE008230CE0D0
:1047900006230AE0052308E0042306E0032304E0DF
:1047A000022302E0012300E000237A6902F0030201
:1047B00092009340FA689A4232D1494B1A683B6999
:1047C000DB43474913400B60454B5A683B69DB4369
:1047D000434913404B60424BDA683B69DB43404935
:1047E0001340CB603E4B9A683B69DB433C49134026
:1047F0008B607B6903F003039B000F2202FA03F333
:10480000FB602F4A7B699B08023352F82310FB6838
:10481000DA432B487B699B080A40023340F8232087
:104820007B681A687B695B00032101FA03F31A4372
:104830007B681A607B69DA087B68083253F82210BB
:104840007B6903F007039B000F2202FA03F3DB43AB
:104850007A69D20819407B68083243F822107B68D5
:104860009A687B695B00032101FA03F3DB431A407A
:104870007B689A607B685A6801217B6901FA03F3BF
:10488000DB431A407B685A607B68DA687B695B00AF
:10489000032101FA03F3DB431A407B68DA607B698A
:1048A00001337B613A687B6922FA03F3002B7FF4C2
:1048B0002FAF00BF00BF1C37BD465DF8047B7047BB
:1048C000000001400004004800080048000C0048B7
:1048D000001000480014004800180048001C004860
:1048E0000004014080B400AF0D4B1B6803F4C063AB
:1048F000B3F5806F02D14FF480630BE0084BD3F81F
:10490000803003F48073B3F5807F02D14FF40073DD
:1049100000E000231846BD465DF8047B704700BFE9
:104920000070004080B485B000AF78607B68002BD9
:1049300041D14B4B1B6803F4C063B3F5806F31D199
:10494000474BD3F88030464A23F48073C2F8803056
:10495000434B1B6823F4C063414A43F40073136064
:10496000404B1B68322202FB03F33F4AA2FB0323A6
:104970009B0C0133FB6002E0FB68013BFB60384BA2
:104980005B6903F48063B3F5806F02D1FB68002B91
:10499000F2D1334B5B6903F48063B3F5806F58D178
:1049A000032357E02E4BD3F880302D4A23F4807335
:1049B000C2F880304DE07B68B3F5007F41D1284BD1
:1049C0001B6803F4C063B3F5806F31D1244BD3F877
:1049D0008030234A43F48073C2F88030204B1B6838
:1049E00023F4C0631E4A43F4007313601D4B1B681D
:1049F000322202FB03F31C4AA2FB03239B0C01336C
:104A0000FB6002E0FB68013BFB60154B5B6903F454
:104A10008063B3F5806F02D1FB68002BF2D1104B9D
:104A20005B6903F48063B3F5806F12D1032311E057
:104A30000B4BD3F880300A4A43F48073C2F88030BD
:104A400007E0074B1B6823F4C063054A43F4806307
:104A50001360002318461437BD465DF8047B704789
:104A6000007000400000002083DE1B4380B588B04A
:104A700000AF78607B68002B02D1012300F008BCF6
:104A8000964B9B6803F00C03BB61944BDB6803F00F
:104A900003037B617B681B6803F01003002B00F0AD
:104AA000E480BB69002B07D0BB690C2B40F08B80E6
:104AB0007B69012B40F08780884B1B6803F0020361
:104AC000002B05D07B689B69002B01D10123DFE31C
:104AD0007B681A6A814B1B6803F00803002B04D023
:104AE0007E4B1B6803F0F00305E07C4BD3F8943059
:104AF0001B0903F0F003934223D27B681B6A18461C
:104B000000F0CCFD0346002B01D00123C0E3734B22
:104B10001B68724A43F008031360704B1B6823F054
:104B2000F0027B681B6A6D4913430B606B4B5B683B
:104B300023F47F427B68DB691B02684913434B60A7
:104B400025E0664B1B68654A43F008031360634B1E
:104B50001B6823F0F0027B681B6A604913430B60FB
:104B60005E4B5B6823F47F427B68DB691B025B4919
:104B700013434B60BB69002B09D17B681B6A184645
:104B800000F08CFD0346002B01D0012380E300F0F0
:104B9000C1FC0246514B9B681B0903F00F035049AF
:104BA000CB5C03F01F0322FA03F34E4A13604E4B13
:104BB0001B681846FEF78AFE0346FB73FB7B002B3F
:104BC00052D0FB7B64E37B689B69002B32D0434B64
:104BD0001B68424A43F001031360FEF7C7FE3861C9
:104BE00008E0FEF7C3FE02463B69D31A022B01D947
:104BF00003234DE3394B1B6803F00203002BF0D075
:104C0000364B1B68354A43F008031360334B1B686F
:104C100023F0F0027B681B6A304913430B602F4B73
:104C20005B6823F47F427B68DB691B022B491343DB
:104C30004B601AE0294B1B68284A23F001031360DC
:104C4000FEF794FE386108E0FEF790FE02463B69ED
:104C5000D31A022B01D903231AE3204B1B6803F05C
:104C60000203002BF0D100E000BF7B681B6803F05B
:104C70000103002B73D0BB69082B05D0BB690C2B3B
:104C80000ED17B69032B0BD1144B1B6803F400334B
:104C9000002B63D07B685B68002B5FD10123F7E2B8
:104CA0007B685B68B3F5803F06D10C4B1B680B4AF1
:104CB00043F48033136025E07B685B68B3F5A02F75
:104CC00014D1064B1B68054A43F480231360034B41
:104CD0001B68024A43F48033136013E00010024063
:104CE000BCAD00080000002004000020A04B1B68A1
:104CF0009F4A23F4803313609D4B1B689C4A23F426
:104D0000802313607B685B68002B13D0FEF72EFEB8
:104D1000386108E0FEF72AFE02463B69D31A642B8D
:104D200001D90323B4E2924B1B6803F40033002B38
:104D3000F0D014E0FEF71AFE386108E0FEF716FE28
:104D400002463B69D31A642B01D90323A0E2884BA6
:104D50001B6803F40033002BF0D100E000BF7B6838
:104D60001B6803F00203002B60D0BB69042B05D045
:104D7000BB690C2B19D17B69022B16D17C4B1B68AC
:104D800003F48063002B05D07B68DB68002B01D126
:104D900001237DE2764B5B6823F0FE427B681B6952
:104DA0001B06734913434B6040E07B68DB68002BB4
:104DB00023D06F4B1B686E4A43F480731360FEF779
:104DC000D5FD386108E0FEF7D1FD02463B69D31AF4
:104DD000022B01D903235BE2654B1B6803F480635C
:104DE000002BF0D0624B5B6823F0FE427B681B69AE
:104DF0001B065F4913434B6018E05D4B1B685C4A20
:104E000023F480731360FEF7B1FD386108E0FEF70C
:104E1000ADFD02463B69D31A022B01D9032337E2C9
:104E2000534B1B6803F48063002BF0D17B681B6835
:104E300003F00803002B3CD07B685B69002B1CD07F
:104E40004B4BD3F894304A4A43F00103C2F89430F4
:104E5000FEF78CFD386108E0FEF788FD02463B69ED
:104E6000D31A022B01D9032312E2414BD3F8943019
:104E700003F00203002BEFD01BE03D4BD3F894303E
:104E80003B4A23F00103C2F89430FEF76FFD38610E
:104E900008E0FEF76BFD02463B69D31A022B01D9ED
:104EA0000323F5E1324BD3F8943003F00203002BD7
:104EB000EFD17B681B6803F00403002B00F0A68091
:104EC0000023FB772A4B9B6D03F08053002B0DD101
:104ED000274B9B6D264A43F080539365244B9B6D73
:104EE00003F08053BB60BB680123FB77214B1B6839
:104EF00003F48073002B18D11E4B1B681D4A43F42A
:104F000080731360FEF732FD386108E0FEF72EFD76
:104F100002463B69D31A022B01D90323B8E1154B92
:104F20001B6803F48073002BF0D07B689B68012B17
:104F300008D10F4BD3F890300D4A43F00103C2F86B
:104F4000903029E07B689B68052B15D1084BD3F87E
:104F50009030074A43F00403C2F89030044BD3F872
:104F60009030034A43F00103C2F8903014E000BFD0
:104F700000100240007000409D4BD3F890309C4AD6
:104F800023F00103C2F89030994BD3F89030984A3F
:104F900023F00403C2F890307B689B68002B16D086
:104FA000FEF7E4FC38610AE0FEF7E0FC02463B69EC
:104FB000D31A41F28832934201D9032368E18C4B22
:104FC000D3F8903003F00203002BEDD015E0FEF78C
:104FD000CDFC38610AE0FEF7C9FC02463B69D31AF2
:104FE00041F28832934201D9032351E1804BD3F837
:104FF000903003F00203002BEDD1FB7F012B05D194
:105000007B4B9B6D7A4A23F0805393657B681B68CA
:1050100003F02003002B3CD07B685B6A002B1CD084
:10502000734BD3F89830724A43F00103C2F89830BA
:10503000FEF79CFC386108E0FEF798FC02463B69ED
:10504000D31A022B01D9032322E1694BD3F89830FC
:1050500003F00203002BEFD01BE0654BD3F8983030
:10506000634A23F00103C2F89830FEF77FFC3861F1
:1050700008E0FEF77BFC02463B69D31A022B01D9FC
:10508000032305E15A4BD3F8983003F00203002BB9
:10509000EFD17B689B6A002B00F0F9807B689B6AEC
:1050A000022B40F0CF80524BDB687B617B6903F0C1
:1050B00003027B68DB6A9A422CD17B6903F0F00221
:1050C0007B681B6B013B1B019A4223D17B6903F474
:1050D000FE427B685B6B1B029A421BD17B6903F02B
:1050E00078427B689B6BDB069A4213D17B6903F4A1
:1050F000C0027B68DB6B5B08013B5B059A4209D110
:105100007B6903F0C0627B681B6C5B08013B5B063C
:105110009A4271D0BB690C2B68D0354B1B6803F0E9
:105120008063002B05D1324B1B6803F08053002BAA
:1051300001D00123ACE02E4B1B682D4A23F0807375
:105140001360FEF713FC386108E0FEF70FFC02461F
:105150003B69D31A022B01D9032399E0244B1B6826
:1051600003F00073002BF0D1214BDA68214B134080
:105170007A68D16A7A68126B013A120111437A682F
:10518000526B120211437A68D26B5208013A5205EF
:1051900011437A68126C5208013A520611437A6838
:1051A000926BD2060A4312491343CB60104B1B6823
:1051B0000F4A43F0807313600D4BDB680C4A43F0D9
:1051C0008073D360FEF7D2FB386108E0FEF7CEFBB8
:1051D00002463B69D31A022B01D9032358E0044B42
:1051E0001B6803F00073002BF0D050E001234FE068
:1051F000001002400C809D01274B1B6803F00073D8
:10520000002B44D1244B1B68234A43F08073136066
:10521000214BDB68204A43F08073D360FEF7A6FB86
:10522000386108E0FEF7A2FB02463B69D31A022B65
:1052300001D903232CE0184B1B6803F00073002BEB
:10524000F0D024E0BB690C2B1FD0134B1B68124A13
:1052500023F080731360FEF789FB386108E0FEF7E6
:1052600085FB02463B69D31A022B01D903230FE0C9
:10527000094B1B6803F00073002BF0D1064BDA6872
:105280000549064B1340CB6001E0012300E00023F9
:1052900018462037BD4680BD00100240FCFFEEFEE0
:1052A00080B586B000AF7860396000237B617B6891
:1052B000002B01D101231DE1904B1B6803F00F036C
:1052C0003A689A4210D98D4B1B6823F00F028B4924
:1052D0003B6813430B60894B1B6803F00F033A686C
:1052E0009A4201D0012305E17B681B6803F00203A9
:1052F000002B10D07B689A68814B9B6803F0F00309
:105300009A4208D97E4B9B6823F0F0027B689B6829
:105310007B4913438B607B681B6803F00103002B00
:1053200079D07B685B68032B1ED1754B1B6803F03B
:105330000073002B01D10123DCE000F009FA0346E1
:10534000704A934246D96E4B9B6803F0F003002BE2
:1053500040D16B4B9B6823F0F003694A43F0800314
:10536000936080237B6135E07B685B68022B07D10B
:10537000634B1B6803F40033002B15D10123B9E004
:105380007B685B68002B07D15D4B1B6803F0020351
:10539000002B09D10123ADE0594B1B6803F4806356
:1053A000002B01D10123A5E000F0B4F80346554AD3
:1053B00093420FD9524B9B6803F0F003002B09D1A5
:1053C0004F4B9B6823F0F0034D4A43F080039360FA
:1053D00080237B614A4B9B6823F003027B685B68F8
:1053E000474913438B60FEF7C1FA38610AE0FEF7C4
:1053F000BDFA02463B69D31A41F28832934201D981
:10540000032377E03E4B9B6803F00C027B685B68EC
:105410009B009A42EBD17B69802B05D1384B9B686E
:10542000374A23F0F00393607B681B6803F00203A4
:10543000002B10D07B689A68314B9B6803F0F00317
:105440009A4208D22E4B9B6823F0F0027B689B683F
:105450002B4913438B60294B1B6803F00F033A68F9
:105460009A4210D2254B1B6823F00F0223493B6858
:1054700013430B60214B1B6803F00F033A689A42F9
:1054800001D0012336E07B681B6803F00403002B86
:1054900008D01B4B9B6823F4E0627B68DB681849EB
:1054A00013438B607B681B6803F00803002B09D053
:1054B000134B9B6823F460527B681B69DB00104927
:1054C00013438B6000F026F802460D4B9B681B09C6
:1054D00003F00F030C49CB5C03F01F0322FA03F324
:1054E0000A4A13600A4B1B681846FEF7EFF9034699
:1054F000FB73FB7B18461837BD4680BD0020024079
:105500000010024000B4C404BCAD0008000000203C
:105510000400002080B489B000AF0023FB610023A9
:10552000BB613E4B9B6803F00C033B613B4BDB686C
:1055300003F00303FB603B69002B05D03B690C2B98
:1055400021D1FB68012B1ED1344B1B6803F00803EB
:10555000002B07D1314BD3F894301B0A03F00F0313
:10556000FB6105E02D4B1B681B0903F00F03FB617A
:105570002B4AFB6952F82330FB613B69002B0DD1AC
:10558000FB69BB610AE03B69042B02D1254BBB617F
:1055900004E03B69082B01D1234BBB613B690C2B19
:1055A00034D11E4BDB6803F00303BB60BB68022BE6
:1055B00003D0BB68032B03D005E01A4B7B6105E0E9
:1055C000194B7B6102E0FB697B6100BF134BDB6819
:1055D0001B0903F00F0301337B60104BDB681B0AD0
:1055E00003F07F037A6903FB02F27B68B2FBF3F3FB
:1055F0007B610A4BDB685B0E03F0030301335B0046
:105600003B607A693B68B2FBF3F3BB61BB69184648
:105610002437BD465DF8047B704700BF0010024090
:10562000D4AD00080024F40000127A0080B400AF6A
:10563000034B1B681846BD465DF8047B704700BFEE
:105640000000002080B500AFFFF7F0FF0246064BD8
:105650009B681B0A03F007030449CB5C03F01F039C
:1056600022FA03F3184680BD00100240CCAD0008BA
:1056700080B500AFFFF7DAFF0246064B9B68DB0AF6
:1056800003F007030449CB5C03F01F0322FA03F382
:10569000184680BD00100240CCAD000880B586B031
:1056A00000AF786000233B61274B9B6D03F0805374
:1056B000002B03D0FFF716F9786114E0224B9B6DA5
:1056C000214A43F0805393651F4B9B6D03F0805339
:1056D000FB60FB68FFF706F978611B4B9B6D1A4A6C
:1056E00023F0805393657B69B3F5007F0BD17B6812
:1056F000802B13D97B68A02B02D902233B610DE0DC
:1057000001233B610AE07B687F2B02D902233B61C6
:1057100004E07B68702B01D101233B610B4B1B68BC
:1057200023F00F0209493B6913430B60074B1B68C9
:1057300003F00F033A699A4201D0012300E00023ED
:1057400018461837BD4680BD0010024000200240B8
:1057500080B487B000AF2D4BDB6803F00303FB6020
:10576000FB68032B0BD0FB68032B25D8FB68012BB0
:1057700008D0FB68022B1FD1254B3B611FE0254B56
:105780003B611CE0214B1B6803F00803002B07D191
:105790001E4BD3F894301B0A03F00F037B6105E026
:1057A0001A4B1B681B0903F00F037B611A4A7B69C4
:1057B00052F823303B6102E000233B6100BF134BF2
:1057C000DB681B0903F00F030133BB600F4BDB6881
:1057D0001B0A03F07F033A6903FB02F2BB68B2FBCA
:1057E000F3F33B61094BDB685B0E03F0030301330A
:1057F0005B007B603A697B68B2FBF3F33B603B681C
:1058000018461C37BD465DF8047B70470010024007
:105810000024F40000127A00D4AD000880B586B0F0
:1058200000AF78600023FB740023BB747B681B68A7
:1058300003F40063002B40D07B68DB6E802B2AD002
:10584000802B25D8602B26D0602B21D8402B06D06A
:10585000402B1DD8002B09D0202B10D018E0894BED
:10586000DB68884A43F48033D36015E07B680433F7
:105870000021184600F002FB0346FB740CE07B6835
:1058800020330021184600F0EDFB0346FB7403E0D3
:105890000123FB7400E000BFFB7C002B0BD1794B94
:1058A000D3F89C3023F0E0027B68DB6E754913432C
:1058B000C1F89C3001E0FB7CBB747B681B6803F47F
:1058C0008053002B47D07B681B6FB3F5806F30D0BF
:1058D000B3F5806F2AD8B3F5407F2AD0B3F5407F67
:1058E00024D8B3F5007F08D0B3F5007F1ED8002B75
:1058F0000AD0B3F5807F10D018E0624BDB68614AB4
:1059000043F48033D36015E07B68043300211846EC
:1059100000F0B4FA0346FB740CE07B6820330021EE
:10592000184600F09FFB0346FB7403E00123FB7461
:1059300000E000BFFB7C002B0BD1524BD3F89C3016
:1059400023F4E0627B681B6F4E491343C1F89C301F
:1059500001E0FB7CBB747B681B6803F40033002B05
:1059600000F09F8000237B74464B9B6D03F08053B7
:10597000002B01D1012300E00023002B0DD0414B6F
:105980009B6D404A43F0805393653E4B9B6D03F003
:105990008053BB60BB6801237B743B4B1B683A4A56
:1059A00043F480731360FDF7E1FFF86009E0FDF751
:1059B000DDFF0246FB68D31A022B02D90323FB74D6
:1059C00005E0314B1B6803F48073002BEFD0FB7CA8
:1059D000002B5BD12B4BD3F8903003F440737B61E9
:1059E0007B69002B1FD07B68D3F890307A699A428C
:1059F00019D0244BD3F8903023F440737B61214BB2
:105A0000D3F890301F4A43F48033C2F890301D4BD6
:105A1000D3F890301B4A23F48033C2F89030194AEF
:105A20007B69C2F890307B6903F00103002B16D02C
:105A3000FDF79CFFF8600BE0FDF798FF0246FB685E
:105A4000D31A41F28832934202D90323FB7406E051
:105A50000C4BD3F8903003F00203002BECD0FB7C0E
:105A6000002B0CD1074BD3F8903023F440727B68A5
:105A7000D3F8903003491343C1F8903008E0FB7C21
:105A8000BB7405E00010024000700040FB7CBB745A
:105A90007B7C012B05D1A04B9B6D9F4A23F080534B
:105AA00093657B681B6803F00103002B0AD09A4BB7
:105AB000D3F8883023F003027B68DB6B96491343ED
:105AC000C1F888307B681B6803F00203002B0AD002
:105AD000914BD3F8883023F00C027B681B6C8E4905
